:020000040000FA
:0400000015EF00F008
:060008004E8254EF05F0EA
:100018004E80E0CF3FF0F29EF28E3FC0E0FF4E9060
:06002800100027EF06F0B6
:100300000043617220637261736865645F005075B9
:100310006C6C6564206F7665725F00537065656410
:100320003A20305F0053706565643A20315F0053B6
:10033000706565643A20325F0053706565643A20E9
:10034000335F0053706565643A20345F0053706515
:1003500065643A20355F000024042510D8A4B3EF6B
:1003600001F0B5EF01F082EF03F0640E4A184B1074
:10037000D8A4BDEF01F0BFEF01F0C5EF01F0030E0F
:10038000286E040E896EFBEF01F03C0E4A184B10EC
:10039000D8A4CDEF01F0CFEF01F0D5EF01F0020EC0
:1003A000286E020E896EFBEF01F0280E4A184B10E2
:1003B000D8A4DDEF01F0DFEF01F0E5EF01F0010E71
:1003C000286E010E896EFBEF01F04A504B10D8A445
:1003D000ECEF01F0EEEF01F0F8EF01F0030E286E04
:1003E000040E896E000E4B6E640E4A6EFBEF01F038
:1003F0004C06D8A04D062804D8A401EF02F003EF64
:1004000002F0C0EF02F02A50D8A409EF02F00BEF7F
:1004100002F013EF02F0000E296E000E2B6EACEC12
:1004200004F056EF03F02A04D8A419EF02F01BEFF2
:1004300002F036EF02F0000E326E000E7EEC06F097
:10044000030E3A6E080E396E770EE82EFED7392E5F
:10045000FCD73A2EFAD700F0010E336E030E346E3D
:10046000B2EC05F0010E2B6E0FEF02F0020E2A180F
:10047000D8A43DEF02F03FEF02F058EF02F0000E7B
:10048000326E000E7EEC06F0030E3A6E080E396EE8
:10049000770EE82EFED7392EFCD73A2EFAD700F089
:1004A000010E336E030E346EB2EC05F032EF02F043
:1004B000030E2A18D8A45FEF02F061EF02F07AEF82
:1004C00002F0000E326E000E7EEC06F0030E3A6E65
:1004D000080E396E770EE82EFED7392EFCD73A2E4D
:1004E000FAD700F0010E336E030E346EB2EC05F055
:1004F00032EF02F0040E2A18D8A481EF02F083EF45
:1005000002F09CEF02F0000E326E000E7EEC06F060
:10051000030E3A6E080E396E770EE82EFED7392E8E
:10052000FCD73A2EFAD700F0010E336E030E346E6C
:10053000B2EC05F032EF02F0050E2A18D8A4A3EFB2
:1005400002F0A5EF02F0BEEF02F0000E326E000ED8
:100550007EEC06F0030E3A6E080E396E770EE82E2A
:10056000FED7392EFCD73A2EFAD700F0010E336EA3
:10057000030E346EB2EC05F032EF02F056EF03F0EA
:10058000020E2818D8A4C7EF02F0C9EF02F00DEF51
:1005900003F02A50D8A4CFEF02F0D1EF02F0D3EF4E
:1005A00002F00BEF02F02A04D8A4D9EF02F0DBEF3F
:1005B00002F0DDEF02F00BEF02F0020E2A18D8A4D1
:1005C000E4EF02F0E6EF02F0E8EF02F00BEF02F0EA
:1005D000030E2A18D8A4EFEF02F0F1EF02F0F3EFC8
:1005E00002F00BEF02F0040E2A18D8A4FAEF02F082
:1005F000FCEF02F0FFEF02F0292A56EF03F0050EA0
:100600002A18D8A406EF03F008EF03F0BEEF02F0BB
:100610002950020F296E56EF03F0030E2818D8A4B4
:1006200014EF03F016EF03F056EF03F02A50D8A4AE
:100630001CEF03F01EEF03F020EF03F00BEF02F0CE
:100640002A04D8A426EF03F028EF03F02AEF03F0E2
:100650000BEF02F0020E2A18D8A431EF03F033EFAB
:1006600003F035EF03F00BEF02F0030E2A18D8A4C5
:100670003CEF03F03EEF03F040EF03F00BEF02F02E
:10068000040E2A18D8A447EF03F049EF03F04BEF0C
:1006900003F0FCEF02F0050E2A18D8A452EF03F085
:1006A00054EF03F0BEEF02F008EF03F0280E291814
:1006B000D8A45DEF03F05FEF03F07AEF03F0000ED4
:1006C000326E000E7EEC06F0030E3A6E080E396EA6
:1006D000770EE82EFED7392EFCD73A2EFAD700F047
:1006E0000E0E336E030E346EB2EC05F0010E2B6E5F
:1006F000ACEC04F0030E4D6EE80E4C6E000E256E51
:10070000000E246E1200730ED36E000E956E000E56
:10071000936E9488948692909292929495989596DE
:100720009594000E896E8C988C968C94000E8C6E2D
:10073000D08EF28EF28C62EC06F092880B0ED76EA1
:10074000FA0ED66E820ED56E010EC26E100EC16EFE
:10075000000EC06EA00E9A6E010E996E000EB86E5D
:10076000000EC46E000EC36ED08EF28EF28CF28A32
:10077000F184A3EF04F0C294C296C282C2B2C3EF66
:1007800003F0C5EF03F0BEEF03F0000E236E000E82
:10079000226EC4CF22F0236A22C040F023C041F071
:1007A000000E436E330E426E1AEC05F040502C6E74
:1007B0002C50D8A4DEEF03F0E0EF03F0FBEF03F0E2
:1007C000000E436E000E46EC06F0030E0001616F52
:1007D000080E606F770EE82EFED7602FFCD7612FD2
:1007E000FAD71B0E446E030E456E89EC05F0000E21
:1007F0002A6EBBEF03F0020E2C6001EF04F003EF52
:1008000004F01EEF04F0000E436E000E46EC06F0FE
:10081000030E0001616F080E606F770EE82EFED7A1
:10082000602FFCD7612FFAD7250E446E030E456E5C
:1008300089EC05F0010E2A6EBBEF03F0030E2C606D
:1008400024EF04F026EF04F041EF04F0000E436EB5
:10085000000E46EC06F0030E0001616F080E606F9B
:10086000770EE82EFED7602FFCD7612FFAD72F0E18
:10087000446E030E456E89EC05F0020E2A6EBBEF46
:1008800003F0040E2C6047EF04F049EF04F064EF2E
:1008900004F0000E436E000E46EC06F0030E00015D
:1008A000616F080E606F770EE82EFED7602FFCD7C1
:1008B000612FFAD7390E446E030E456E89EC05F0B0
:1008C000030E2A6EBBEF03F0040E2C18D8A46BEFB6
:1008D00004F06DEF04F088EF04F0000E436E000E9C
:1008E00046EC06F0030E0001616F080E606F770E94
:1008F000E82EFED7602FFCD7612FFAD7430E446E47
:10090000030E456E89EC05F0040E2A6EBBEF03F072
:10091000000E436E000E46EC06F0030E0001616F00
:10092000080E606F770EE82EFED7602FFCD7612F80
:10093000FAD74D0E446E030E456E89EC05F0050E98
:100940002A6EBBEF03F082B6A8EF04F0AAEF04F022
:10095000BBEF03F015EF00F08C908C922B04D8A421
:10096000B4EF04F0B6EF04F017EF05F0DD0E326ED1
:10097000C60EE82EFED7322EFCD700D08CB0C3EFC7
:1009800004F0C6EF04F0010EC7EF04F0000EFF0AFA
:10099000326E8C503218FE0B32188C6EDD0E326EB9
:1009A000C60EE82EFED7322EFCD700D08CB2DBEF7D
:1009B00004F0DEEF04F0010EDFEF04F0000EFF0A9A
:1009C000326E32468C503218FD0B32188C6E020E8D
:1009D000336E040E326EBA0EE82EFED7322EFCD7DE
:1009E000332EFAD700D00EEF05F0000E286E000E61
:1009F0002A6E000E896E8C908C92010ECCEC06F063
:100A0000000E2B6E000E296E030E4D6EE80E4C6E1E
:100A1000000E4B6E7D0E4A6E19EF05F082B813EF93
:100A200005F015EF05F0F5EF04F0B6EF04F08C904B
:100A30008C921200000E456E000E446E4250431020
:100A4000D8B425EF05F027EF05F04FEF05F0010EC4
:100A5000466E2FEF05F0D89042364336462A43AE15
:100A600034EF05F036EF05F02BEF05F0D890443663
:100A700045364250405C43504158D8A042EF05F003
:100A800044EF05F049EF05F04250405E4350415AB3
:100A90004480D89043324232462E36EF05F044C0AF
:100AA00040F045C041F01200F6CF3BF0F7CF3CF0EC
:100AB000F8CF3DF0F5CF3EF0F2A461EF05F063EF23
:100AC00005F07FEF05F04C504D10D8B46AEF05F0FB
:100AD0006CEF05F071EF05F04C06D8A04D067FEFE6
:100AE00005F0000E256E010E246EACEC01F04A06F6
:100AF000D8A04B060B0ED76EFA0ED66EF2943EC0FF
:100B0000F5FF3DC0F8FF3CC0F7FF3BC0F6FF4E923B
:100B10001100000E496E000E486E48504424466E87
:100B200049504520476E46C0F6FF47C0F7FF080012
:100B3000F550DBEC05F0484A492A48504424466EFB
:100B400049504520476E46C0F6FF47C0F7FF0800F2
:100B5000F5505F0AD8A4AFEF05F0B1EF05F08DEFC7
:100B600005F01200000E386E000E376E3750332439
:100B7000356E38503420366E35C0F6FF36C0F7FF7C
:100B80000800F55001EC06F0374A382A3750332474
:100B9000356E38503420366E35C0F6FF36C0F7FF5C
:100BA0000800F5505F0AD8A4D8EF05F0DAEF05F099
:100BB000B6EF05F01200416E8C988C88820E406E64
:100BC000DE0EE82EFED7402EFCD741C08AFF8C9463
:100BD0008C84820E436E330E426E00F04206D8A023
:100BE000430643BEFCEF05F0435008E14204D8A0A1
:100BF000FCEF05F0FEEF05F0EDEF05F08C94272AF1
:100C00001200306E8C988C88820E2F6EDE0EE82ECD
:100C1000FED72F2EFCD730C08AFF8C948C84820E96
:100C2000326E330E316E00F03106D8A0320632BE7D
:100C300022EF06F0325008E13104D8A022EF06F08E
:100C400024EF06F013EF06F08C94272A1200B80E5A
:100C5000F66E0D0EF76E000EF86E00EE4AF010EE16
:100C600004F00900F5CFEEFFE550E150FAE100EEA7
:100C700001F02E0EEE6AE806FDE14E904E92000E57
:100C8000F86E030EF76E000183EF03F0466E430427
:100C9000D8A44DEF06F04FEF06F051EF06F0400EEE
:100CA0004626020E456E040E446EBA0EE82EFED79E
:100CB000442EFCD7452EFAD700D046508009BCEC14
:100CC00006F012008C988C96820E436EDE0EE82E93
:100CD000FED7432EFCD7380EBCEC06F0380EBCEC29
:100CE00006F0380EBCEC06F00C0EBCEC06F0060E5E
:100CF000BCEC06F0010EBCEC06F01200356E3204BE
:100D0000D8A485EF06F087EF06F089EF06F0400ED5
:100D10003526020E346E040E336EBA0EE82EFED760
:100D2000332EFCD7342EFAD700D035508009CCECC6
:100D300006F012008C84030E406E980EE82EFED74B
:100D4000402EFCD78C94030E406E980EE82EFED7F2
:100D5000402EFCD712008C84030E2F6E980EE82EC6
:100D6000FED72F2EFCD78C94030E2F6E980EE82EF4
:100D7000FED72F2EFCD71200426E8C988C9642C064
:100D80008AFF9AEC06F01A0E416EF80EE82EFED796
:100D9000412EFCD700D01200316E8C988C9631C059
:100DA0008AFFABEC06F01A0E306EF80EE82EFED776
:0C0DB000302EFCD700D012006400E803D5
:020000040020DA
:08000000FFFFFFFFFFFFFFFF00
:020000040030CA
:0E000000FFC80D3E3C9D80FF0FC00FE00F407B
:00000001FF
